:020000020000FC
:1000000006E0202E07E0302E08E0402E09E0502EBA
:100010002FE721BB2EE127BB022D2FD002BB32E000
:1000200038BB05E010E019D0032D27D002BB34E027
:1000300038BB05E010E011D0042D1FD002BB38E022
:1000400038BB05E010E009D0052D17D002BB30E128
:1000500038BB05E010E001D0DFCF05D00A95E9F705
:100060001A95DAF708958F939F9396E08DE30197A1
:100070000000E8F79F918F9108951F93FF93EF93EE
:1000800010E0F0E0E4E9E00FF11F0491EF91FF913F
:0E009000EF9108953F065B4F666D7D077F6F11
:00000001FF
