:020000020000FC
:0200000018C026
:1000080000C00F931F932F933F93002D112D28EEBF
:1000180033E0002F112F69D05AD0039409F41394B8
:100028003F912F911F910F9118952FE721BB2EE13A
:1000380027BB20E02FBD2CE02EBD2AE72BBD22E1F7
:100048002ABD20E429BF7894022D2FD002BB30E1CD
:1000580038BB0AE010E019D0032D27D002BB38E0E6
:1000680038BB0AE010E011D0042D1FD002BB34E0E9
:1000780038BB0AE010E009D0052D17D002BB32E0EA
:1000880038BB0AE010E001D0DFCF05D00A95E9F7C8
:100098001A95DAF708958F939F9396E08DE3019769
:1000A8000000E8F79F918F9108951F93FF93EF93B6
:1000B80010E0F0E0ECECE00FF11F0491EF91FF91FC
:1000C800EF9108953F065B4F666D7D077F6F28EEC1
:1000D80033E00BD0522E24E630E007D0422E2AE03F
:1000E80030E003D0322E202E08958F939F939927C6
:1000F80088270217130720F00196021B130BF9CF6C
:0E010800002F112F282F392F9F918F910895CE
:00000001FF
