:020000020000FC
:100000002FE721BB2EE127BB2AE02394221609F417
:100010002224022D2FD002BB30E138BB0AEF10E0C2
:1000200019D0032D27D002BB38E038BB0AEF10E00F
:1000300011D0042D1FD002BB34E038BB0AEF10E012
:1000400009D0052D17D002BB32E038BB0AEF10E013
:1000500001D0DBCF05D00A95E9F71A95DAF70895B4
:100060008F939F9396E08DE301970000E8F79F91AF
:100070008F9108951F93FF93EF9310E0F0E0EEE867
:10008000E00FF11F0491EF91FF91EF9108953F066A
:080090005B4F666D7D077F6F79
:00000001FF
