:020000020000FC
:100000002FE721BB2EE127BB2AE02394221669F4B7
:1000100022243394321649F433244394421629F4AB
:1000200044245394521609F45524022D2FD002BBB8
:1000300030E138BB0FEB10E019D0032D27D002BB05
:1000400038E038BB0FEB10E011D0042D1FD002BBFD
:1000500034E038BB0FEB10E009D0052D17D002BB00
:1000600032E038BB0FEB10E001D0CFCF05D00A95BE
:10007000E9F71A95DAF708958F939F9396E08DE349
:1000800001970000E8F79F918F9108951F93FF93C8
:10009000EF9310E0F0E0E6EAE00FF11F0491EF913A
:1000A000FF91EF9108953F065B4F666D7D077F6F6F
:00000001FF
